{
  "contractName": "Migrations",
  "abi": [
    {
      "constant": false,
      "inputs": [
        {
          "name": "newAddress",
          "type": "address"
        }
      ],
      "name": "upgrade",
      "outputs": [],
      "payable": false,
      "stateMutability": "nonpayable",
      "type": "function"
    },
    {
      "constant": true,
      "inputs": [],
      "name": "owner",
      "outputs": [
        {
          "name": "",
          "type": "address"
        }
      ],
      "payable": false,
      "stateMutability": "view",
      "type": "function"
    },
    {
      "constant": true,
      "inputs": [],
      "name": "lastCompletedMigration",
      "outputs": [
        {
          "name": "",
          "type": "uint256"
        }
      ],
      "payable": false,
      "stateMutability": "view",
      "type": "function"
    },
    {
      "constant": false,
      "inputs": [
        {
          "name": "completed",
          "type": "uint256"
        }
      ],
      "name": "setCompleted",
      "outputs": [],
      "payable": false,
      "stateMutability": "nonpayable",
      "type": "function"
    },
    {
      "inputs": [],
      "payable": false,
      "stateMutability": "nonpayable",
      "type": "constructor"
    }
  ],
  "bytecode": "0x6060604052341561000f57600080fd5b336000806101000a81548173ffffffffffffffffffffffffffffffffffffffff021916908373ffffffffffffffffffffffffffffffffffffffff1602179055506102db8061005e6000396000f300606060405260043610610062576000357c0100000000000000000000000000000000000000000000000000000000900463ffffffff1680630900f010146100675780638da5cb5b146100a0578063fbdbad3c146100f5578063fdacd5761461011e575b600080fd5b341561007257600080fd5b61009e600480803573ffffffffffffffffffffffffffffffffffffffff16906020019091905050610141565b005b34156100ab57600080fd5b6100b3610224565b604051808273ffffffffffffffffffffffffffffffffffffffff1673ffffffffffffffffffffffffffffffffffffffff16815260200191505060405180910390f35b341561010057600080fd5b610108610249565b6040518082815260200191505060405180910390f35b341561012957600080fd5b61013f600480803590602001909190505061024f565b005b60008060009054906101000a900473ffffffffffffffffffffffffffffffffffffffff1673ffffffffffffffffffffffffffffffffffffffff163373ffffffffffffffffffffffffffffffffffffffff161415610220578190508073ffffffffffffffffffffffffffffffffffffffff1663fdacd5766001546040518263ffffffff167c010000000000000000000000000000000000000000000000000000000002815260040180828152602001915050600060405180830381600087803b151561020b57600080fd5b6102c65a03f1151561021c57600080fd5b5050505b5050565b6000809054906101000a900473ffffffffffffffffffffffffffffffffffffffff1681565b60015481565b6000809054906101000a900473ffffffffffffffffffffffffffffffffffffffff1673ffffffffffffffffffffffffffffffffffffffff163373ffffffffffffffffffffffffffffffffffffffff1614156102ac57806001819055505b505600a165627a7a723058202da9f0c825e39de2163b72fed3e381ec7ebb58607da3e527fd31c843c5b13c1b0029",
  "source": "pragma solidity ^0.4.18;\n\ncontract Migrations {\n  address public owner;\n  uint public lastCompletedMigration;\n\n  modifier restricted() {\n    if (msg.sender == owner) {\n      _;\n    }\n  }\n\n  function Migrations() public {\n    owner = msg.sender;\n  }\n\n  function setCompleted(uint completed) public restricted {\n    lastCompletedMigration = completed;\n  }\n\n  function upgrade(address newAddress) public restricted {\n    Migrations upgraded = Migrations(newAddress);\n    upgraded.setCompleted(lastCompletedMigration);\n  }\n}\n",
  "sourcePath": "/Users/dimitardzhurenov/Documents/Personal/Projects/Blockchain Projects/Blockchain App - Lime Labs/Splitter/contracts/Migrations.sol",
  "compiler": {
    "name": "solc",
    "version": "0.4.18+commit.9cf6e910.Emscripten.clang"
  },
  "schemaVersion": "1.0.1",
  "updatedAt": "2017-12-02T06:33:56.729Z"
}