{
  "contractName": "Splitter",
  "abi": [
    {
      "constant": false,
      "inputs": [],
      "name": "kill",
      "outputs": [
        {
          "name": "success",
          "type": "bool"
        }
      ],
      "payable": false,
      "stateMutability": "nonpayable",
      "type": "function"
    },
    {
      "constant": false,
      "inputs": [
        {
          "name": "recipientOneAddress",
          "type": "address"
        },
        {
          "name": "recipientTwoAddress",
          "type": "address"
        }
      ],
      "name": "sendMoney",
      "outputs": [
        {
          "name": "success",
          "type": "bool"
        }
      ],
      "payable": true,
      "stateMutability": "payable",
      "type": "function"
    },
    {
      "constant": true,
      "inputs": [
        {
          "name": "",
          "type": "address"
        }
      ],
      "name": "recipientTwo",
      "outputs": [
        {
          "name": "",
          "type": "address"
        }
      ],
      "payable": false,
      "stateMutability": "view",
      "type": "function"
    },
    {
      "constant": true,
      "inputs": [
        {
          "name": "",
          "type": "address"
        }
      ],
      "name": "accounts",
      "outputs": [
        {
          "name": "",
          "type": "uint256"
        }
      ],
      "payable": false,
      "stateMutability": "view",
      "type": "function"
    },
    {
      "constant": true,
      "inputs": [
        {
          "name": "user",
          "type": "address"
        }
      ],
      "name": "owner",
      "outputs": [
        {
          "name": "",
          "type": "address"
        }
      ],
      "payable": false,
      "stateMutability": "view",
      "type": "function"
    },
    {
      "constant": true,
      "inputs": [
        {
          "name": "user",
          "type": "address"
        }
      ],
      "name": "showBalance",
      "outputs": [
        {
          "name": "",
          "type": "uint256"
        }
      ],
      "payable": false,
      "stateMutability": "view",
      "type": "function"
    },
    {
      "constant": false,
      "inputs": [],
      "name": "withdrawMoney",
      "outputs": [
        {
          "name": "success",
          "type": "bool"
        }
      ],
      "payable": true,
      "stateMutability": "payable",
      "type": "function"
    },
    {
      "constant": true,
      "inputs": [],
      "name": "recipientOne",
      "outputs": [
        {
          "name": "",
          "type": "address"
        }
      ],
      "payable": false,
      "stateMutability": "view",
      "type": "function"
    },
    {
      "inputs": [
        {
          "name": "ownerAddress",
          "type": "address"
        },
        {
          "name": "recipientOneAddress",
          "type": "address"
        },
        {
          "name": "recipientTwoAddress",
          "type": "address"
        }
      ],
      "payable": false,
      "stateMutability": "nonpayable",
      "type": "constructor"
    },
    {
      "anonymous": false,
      "inputs": [
        {
          "indexed": false,
          "name": "sender",
          "type": "address"
        },
        {
          "indexed": false,
          "name": "recipientOne",
          "type": "address"
        },
        {
          "indexed": false,
          "name": "recipientTwo",
          "type": "address"
        },
        {
          "indexed": false,
          "name": "amount",
          "type": "uint256"
        }
      ],
      "name": "LogMoneyTransfer",
      "type": "event"
    },
    {
      "anonymous": false,
      "inputs": [
        {
          "indexed": false,
          "name": "sender",
          "type": "address"
        },
        {
          "indexed": false,
          "name": "amount",
          "type": "uint256"
        }
      ],
      "name": "LogMoneyWithdraw",
      "type": "event"
    }
  ],
  "bytecode": "0x6060604052341561000f57600080fd5b60405160208061088b83398101604052808051906020019091905050806000806101000a81548173ffffffffffffffffffffffffffffffffffffffff021916908373ffffffffffffffffffffffffffffffffffffffff160217905550506108108061007b6000396000f30060606040526004361061008e576000357c0100000000000000000000000000000000000000000000000000000000900463ffffffff16806341c0e1b5146100935780635830928c146100c057806359b0ade1146101255780635e5c06e21461017a5780638da5cb5b146101c75780639c080f5d1461021c578063ac44600214610269578063ebcdba311461028b575b600080fd5b341561009e57600080fd5b6100a66102e0565b604051808215151515815260200191505060405180910390f35b61010b600480803573ffffffffffffffffffffffffffffffffffffffff1690602001909190803573ffffffffffffffffffffffffffffffffffffffff16906020019091905050610377565b604051808215151515815260200191505060405180910390f35b341561013057600080fd5b610138610587565b604051808273ffffffffffffffffffffffffffffffffffffffff1673ffffffffffffffffffffffffffffffffffffffff16815260200191505060405180910390f35b341561018557600080fd5b6101b1600480803573ffffffffffffffffffffffffffffffffffffffff169060200190919050506105ad565b6040518082815260200191505060405180910390f35b34156101d257600080fd5b6101da6105c5565b604051808273ffffffffffffffffffffffffffffffffffffffff1673ffffffffffffffffffffffffffffffffffffffff16815260200191505060405180910390f35b341561022757600080fd5b610253600480803573ffffffffffffffffffffffffffffffffffffffff169060200190919050506105ea565b6040518082815260200191505060405180910390f35b610271610633565b604051808215151515815260200191505060405180910390f35b341561029657600080fd5b61029e6107be565b604051808273ffffffffffffffffffffffffffffffffffffffff1673ffffffffffffffffffffffffffffffffffffffff16815260200191505060405180910390f35b60008060009054906101000a900473ffffffffffffffffffffffffffffffffffffffff1673ffffffffffffffffffffffffffffffffffffffff163373ffffffffffffffffffffffffffffffffffffffff1614151561033d57600080fd5b6000809054906101000a900473ffffffffffffffffffffffffffffffffffffffff1673ffffffffffffffffffffffffffffffffffffffff16ff5b60008060003411151561038957600080fd5b349050600060028281151561039a57fe5b061415156103f7576001600360003373ffffffffffffffffffffffffffffffffffffffff1673ffffffffffffffffffffffffffffffffffffffff168152602001908152602001600020600082825401925050819055506001810390505b60028181151561040357fe5b04600360008673ffffffffffffffffffffffffffffffffffffffff1673ffffffffffffffffffffffffffffffffffffffff1681526020019081526020016000206000828254019250508190555060028181151561045c57fe5b04600360008573ffffffffffffffffffffffffffffffffffffffff1673ffffffffffffffffffffffffffffffffffffffff168152602001908152602001600020600082825401925050819055507f9546839e5d07773af3a53837d5e0cd3dcf7864167db574df8f5e0e352a7ea40f33858584604051808573ffffffffffffffffffffffffffffffffffffffff1673ffffffffffffffffffffffffffffffffffffffff1681526020018473ffffffffffffffffffffffffffffffffffffffff1673ffffffffffffffffffffffffffffffffffffffff1681526020018373ffffffffffffffffffffffffffffffffffffffff1673ffffffffffffffffffffffffffffffffffffffff16815260200182815260200194505050505060405180910390a1600191505092915050565b600260009054906101000a900473ffffffffffffffffffffffffffffffffffffffff1681565b60036020528060005260406000206000915090505481565b6000809054906101000a900473ffffffffffffffffffffffffffffffffffffffff1681565b6000600360008373ffffffffffffffffffffffffffffffffffffffff1673ffffffffffffffffffffffffffffffffffffffff168152602001908152602001600020549050919050565b6000806000600360003373ffffffffffffffffffffffffffffffffffffffff1673ffffffffffffffffffffffffffffffffffffffff1681526020019081526020016000205411151561068457600080fd5b600360003373ffffffffffffffffffffffffffffffffffffffff1673ffffffffffffffffffffffffffffffffffffffff1681526020019081526020016000205490506000600360003373ffffffffffffffffffffffffffffffffffffffff1673ffffffffffffffffffffffffffffffffffffffff168152602001908152602001600020819055503373ffffffffffffffffffffffffffffffffffffffff166108fc829081150290604051600060405180830381858888f19350505050151561074b57600080fd5b7f7b9f265452560c333ca5e116ff9eefbdbc481e966927b74fc6457c12cf56e1cd3382604051808373ffffffffffffffffffffffffffffffffffffffff1673ffffffffffffffffffffffffffffffffffffffff1681526020018281526020019250505060405180910390a1600191505090565b600160009054906101000a900473ffffffffffffffffffffffffffffffffffffffff16815600a165627a7a72305820836825257f57ed06b534039ba854c22ebfbcf8ad10f8837d6f25464506aca3610029",
  "source": "pragma solidity ^0.4.18;\n\ncontract Splitter {\n    address public owner; // Alice\n    address public recipientOne; // Bob\n    address public recipientTwo; // Carol\n\n    mapping (address => uint) public accounts; // address(key) => uint(value)\n\n    // Events\n    event LogMoneyTransfer(address sender, address recipientOne, address recipientTwo, uint amount);\n    event LogMoneyWithdraw(address sender, uint amount);\n\n    function Splitter(address ownerAddress) public {\n        owner = ownerAddress;\n    }\n\n    function sendMoney(address recipientOneAddress, address recipientTwoAddress) public payable returns (bool success) {\n        require(msg.value > 0);\n\n        uint amountSent = msg.value;\n\n        if (amountSent % 2 != 0) {\n            accounts[msg.sender] += 1;\n            amountSent -= 1;\n        }\n\n        accounts[recipientOneAddress] += amountSent / 2;\n        accounts[recipientTwoAddress] += amountSent / 2;\n\n        LogMoneyTransfer(msg.sender, recipientOneAddress, recipientTwoAddress, amountSent);\n\n        return true;\n    }\n\n    function withdrawMoney() public payable returns (bool success) {\n\t    require(accounts[msg.sender] > 0);\n\n        uint balance = accounts[msg.sender];\n        accounts[msg.sender] = 0;\n    \tmsg.sender.transfer(balance);\n\n        LogMoneyWithdraw(msg.sender, balance);\n\n        return true;\n    }\n\n    function showBalance(address user) public constant returns(uint) {\n        return accounts[user];\n    }\n\n    function kill() public returns (bool success) {\n        require(msg.sender == owner);\n        selfdestruct(owner);\n\n        return true;\n    }\n}",
  "sourcePath": "/Users/dimitardzhurenov/Documents/Personal/Projects/Blockchain Projects/Blockchain App - Lime Labs/Splitter/contracts/Splitter.sol",
  "compiler": {
    "name": "solc",
    "version": "0.4.18+commit.9cf6e910.Emscripten.clang"
  },
  "schemaVersion": "1.0.1",
  "updatedAt": "2017-12-02T06:33:56.739Z"
}