{
  "contractName": "Remittance",
  "abi": [
    {
      "constant": true,
      "inputs": [],
      "name": "deadline",
      "outputs": [
        {
          "name": "",
          "type": "uint256"
        }
      ],
      "payable": false,
      "stateMutability": "view",
      "type": "function"
    },
    {
      "constant": false,
      "inputs": [],
      "name": "kill",
      "outputs": [
        {
          "name": "success",
          "type": "bool"
        }
      ],
      "payable": false,
      "stateMutability": "nonpayable",
      "type": "function"
    },
    {
      "constant": false,
      "inputs": [
        {
          "name": "passwordOneHash",
          "type": "bytes32"
        },
        {
          "name": "passwordTwoHash",
          "type": "bytes32"
        }
      ],
      "name": "withdraw",
      "outputs": [
        {
          "name": "success",
          "type": "bool"
        }
      ],
      "payable": true,
      "stateMutability": "payable",
      "type": "function"
    },
    {
      "constant": true,
      "inputs": [
        {
          "name": "masterPasswordHash",
          "type": "bytes32"
        }
      ],
      "name": "owner",
      "outputs": [
        {
          "name": "",
          "type": "address"
        }
      ],
      "payable": false,
      "stateMutability": "view",
      "type": "function"
    },
    {
      "constant": false,
      "inputs": [
        {
          "name": "masterPasswordHash",
          "type": "bytes32"
        }
      ],
      "name": "deposit",
      "outputs": [
        {
          "name": "success",
          "type": "bool"
        }
      ],
      "payable": true,
      "stateMutability": "payable",
      "type": "function"
    },
    {
      "inputs": [
        {
          "name": "remittanceDeadline",
          "type": "uint256"
        }
      ],
      "payable": false,
      "stateMutability": "nonpayable",
      "type": "constructor"
    },
    {
      "anonymous": false,
      "inputs": [
        {
          "indexed": false,
          "name": "depositor",
          "type": "address"
        },
        {
          "indexed": false,
          "name": "amount",
          "type": "uint256"
        },
        {
          "indexed": false,
          "name": "deadline",
          "type": "uint256"
        }
      ],
      "name": "LogDeposit",
      "type": "event"
    },
    {
      "anonymous": false,
      "inputs": [
        {
          "indexed": false,
          "name": "receiver",
          "type": "address"
        },
        {
          "indexed": false,
          "name": "receivedAmount",
          "type": "uint256"
        }
      ],
      "name": "LogWithdraw",
      "type": "event"
    }
  ],
  "bytecode": "0x6060604052341561000f57600080fd5b60405160208061060983398101604052808051906020019091905050336000806101000a81548173ffffffffffffffffffffffffffffffffffffffff021916908373ffffffffffffffffffffffffffffffffffffffff1602179055508060018190555050610587806100826000396000f30060606040526004361061006d576000357c0100000000000000000000000000000000000000000000000000000000900463ffffffff16806329dcb0cf1461007257806341c0e1b51461009b57806363615149146100c85780638da5cb5b14610109578063b214faa51461015e575b600080fd5b341561007d57600080fd5b610085610192565b6040518082815260200191505060405180910390f35b34156100a657600080fd5b6100ae610198565b604051808215151515815260200191505060405180910390f35b6100ef6004808035600019169060200190919080356000191690602001909190505061022f565b604051808215151515815260200191505060405180910390f35b341561011457600080fd5b61011c6103e0565b604051808273ffffffffffffffffffffffffffffffffffffffff1673ffffffffffffffffffffffffffffffffffffffff16815260200191505060405180910390f35b610178600480803560001916906020019091905050610405565b604051808215151515815260200191505060405180910390f35b60015481565b60008060009054906101000a900473ffffffffffffffffffffffffffffffffffffffff1673ffffffffffffffffffffffffffffffffffffffff163373ffffffffffffffffffffffffffffffffffffffff161415156101f557600080fd5b6000809054906101000a900473ffffffffffffffffffffffffffffffffffffffff1673ffffffffffffffffffffffffffffffffffffffff16ff5b600080600084846040518083600019166000191681526020018260001916600019168152602001925050506040518091039020915060026000836000191660001916815260200190815260200160002090506000816001015411151561029457600080fd5b3373ffffffffffffffffffffffffffffffffffffffff168160000160009054906101000a900473ffffffffffffffffffffffffffffffffffffffff1673ffffffffffffffffffffffffffffffffffffffff16141561030457438160020154111515156102ff57600080fd5b610317565b43816002015411151561031657600080fd5b5b3373ffffffffffffffffffffffffffffffffffffffff166108fc82600101549081150290604051600060405180830381858888f19350505050151561035b57600080fd5b7f4ce7033d118120e254016dccf195288400b28fc8936425acd5f17ce2df3ab708338260010154604051808373ffffffffffffffffffffffffffffffffffffffff1673ffffffffffffffffffffffffffffffffffffffff1681526020018281526020019250505060405180910390a16000816001018190555060019250505092915050565b6000809054906101000a900473ffffffffffffffffffffffffffffffffffffffff1681565b6000803411151561041557600080fd5b600060010282600019161415151561042c57600080fd5b6060604051908101604052803373ffffffffffffffffffffffffffffffffffffffff168152602001348152602001600154430181525060026000846000191660001916815260200190815260200160002060008201518160000160006101000a81548173ffffffffffffffffffffffffffffffffffffffff021916908373ffffffffffffffffffffffffffffffffffffffff16021790555060208201518160010155604082015181600201559050507f9dbb0e7dda3e09710ce75b801addc87cf9d9c6c581641b3275fca409ad086c6233346001544301604051808473ffffffffffffffffffffffffffffffffffffffff1673ffffffffffffffffffffffffffffffffffffffff168152602001838152602001828152602001935050505060405180910390a1600190509190505600a165627a7a72305820cdaaf44979043e25a7e1c8e78270c3635d623137141e8fa5c1c1ed58a93613bb0029",
  "source": "pragma solidity ^0.4.18;\n\ncontract Remittance {\n    address public owner;\n    uint public deadline;\n\n    struct Deposit {\n        address depositor;\n        uint amount;\n        uint depositDeadline;\n    }\n\n    mapping (bytes32 => Deposit) deposits; // bytes32(key) => uint(value)\n\n    // Events\n    event LogDeposit(address depositor, uint amount, uint deadline);\n    event LogWithdraw(address receiver, uint receivedAmount);\n\n    function Remittance(uint remittanceDeadline) public {\n        owner = msg.sender;\n        deadline = remittanceDeadline;\n    }\n\n    function deposit(bytes32 masterPasswordHash) public payable returns (bool success) {\n        require(msg.value > 0);\n        require(masterPasswordHash != 0);\n\n        deposits[masterPasswordHash] = Deposit({\n            depositor: msg.sender,\n            amount: msg.value,\n            depositDeadline: block.number + deadline\n        });\n\n        // Log event\n        LogDeposit(msg.sender, msg.value, block.number + deadline);\n\n        return true;\n    }\n\n    function withdraw(bytes32 passwordOneHash, bytes32 passwordTwoHash) public payable returns (bool success) {\n        bytes32 masterPasswordHash = keccak256(passwordOneHash, passwordTwoHash);\n        Deposit storage currentDeposit = deposits[masterPasswordHash];\n\n        require(currentDeposit.amount > 0);\n\n        if (currentDeposit.depositor == msg.sender) {\n            // Return money to owner\n            require(currentDeposit.depositDeadline <= block.number);\n        } else {\n            // Send money for processing\n            require(currentDeposit.depositDeadline > block.number);\n        }\n\n        // Make transaction\n        msg.sender.transfer(currentDeposit.amount);\n\n        // Log event\n        LogWithdraw(msg.sender, currentDeposit.amount);\n\n        // Reset current deposit data (not sure about gas costs)\n        currentDeposit.amount = 0;\n\n        return true;\n    }\n\n    function kill() public returns (bool success) {\n        require(msg.sender == owner);\n        selfdestruct(owner);\n\n        return true;\n    }\n}",
  "sourcePath": "/Users/dimitardzhurenov/Documents/Personal/Projects/Blockchain Projects/Blockchain App - Lime Labs/Remittance/contracts/Remittance.sol",
  "compiler": {
    "name": "solc",
    "version": "0.4.18+commit.9cf6e910.Emscripten.clang"
  },
  "schemaVersion": "1.0.1",
  "updatedAt": "2017-11-30T07:52:02.499Z"
}