{
  "contractName": "ThrowProxy",
  "abi": [
    {
      "constant": false,
      "inputs": [],
      "name": "execute",
      "outputs": [
        {
          "name": "",
          "type": "bool"
        }
      ],
      "payable": false,
      "stateMutability": "nonpayable",
      "type": "function"
    },
    {
      "constant": true,
      "inputs": [],
      "name": "target",
      "outputs": [
        {
          "name": "",
          "type": "address"
        }
      ],
      "payable": false,
      "stateMutability": "view",
      "type": "function"
    },
    {
      "inputs": [
        {
          "name": "_target",
          "type": "address"
        }
      ],
      "payable": false,
      "stateMutability": "nonpayable",
      "type": "constructor"
    },
    {
      "payable": false,
      "stateMutability": "nonpayable",
      "type": "fallback"
    }
  ],
  "bytecode": "0x6060604052341561000f57600080fd5b60405160208061031f83398101604052808051906020019091905050806000806101000a81548173ffffffffffffffffffffffffffffffffffffffff021916908373ffffffffffffffffffffffffffffffffffffffff160217905550506102a48061007b6000396000f30060606040526004361061004c576000357c0100000000000000000000000000000000000000000000000000000000900463ffffffff168063614619541461006c578063d4b8399214610099575b341561005757600080fd5b600036600191906100699291906101d3565b50005b341561007757600080fd5b61007f6100ee565b604051808215151515815260200191505060405180910390f35b34156100a457600080fd5b6100ac6101ae565b604051808273ffffffffffffffffffffffffffffffffffffffff1673ffffffffffffffffffffffffffffffffffffffff16815260200191505060405180910390f35b60008060009054906101000a900473ffffffffffffffffffffffffffffffffffffffff1673ffffffffffffffffffffffffffffffffffffffff166001604051808280546001816001161561010002031660029004801561018f5780601f106101645761010080835404028352916020019161018f565b820191906000526020600020905b81548152906001019060200180831161017257829003601f168201915b505091505060006040518083038160008661646e5a03f1915050905090565b6000809054906101000a900473ffffffffffffffffffffffffffffffffffffffff1681565b828054600181600116156101000203166002900490600052602060002090601f016020900481019282601f1061021457803560ff1916838001178555610242565b82800160010185558215610242579182015b82811115610241578235825591602001919060010190610226565b5b50905061024f9190610253565b5090565b61027591905b80821115610271576000816000905550600101610259565b5090565b905600a165627a7a72305820966145e8b22b077e01ac649c0560ba7d70a67ddcfdfe8a9cde655019ffacef1d0029",
  "source": "pragma solidity ^0.4.18;\n\ncontract ThrowProxy {\n  address public target;\n  bytes data;\n\n  function ThrowProxy(address _target) public {\n    target = _target;\n  }\n\n  //prime the data using the fallback function.\n  function () public {\n    data = msg.data;\n  }\n\n  function execute() public returns (bool) {\n    return target.call(data);\n  }\n}",
  "sourcePath": "/Users/dimitardzhurenov/Documents/Personal/Projects/Blockchain Projects/Blockchain App - Lime Labs/Remittance/contracts/ThrowProxy.sol",
  "compiler": {
    "name": "solc",
    "version": "0.4.18+commit.9cf6e910.Emscripten.clang"
  },
  "schemaVersion": "1.0.1",
  "updatedAt": "2017-12-01T01:43:44.952Z"
}